{
  "contractName": "IdentityLedger",
  "abi": [
    {
      "inputs": [],
      "payable": false,
      "stateMutability": "nonpayable",
      "type": "constructor"
    },
    {
      "anonymous": false,
      "inputs": [
        {
          "indexed": false,
          "internalType": "string",
          "name": "_ipfsHash",
          "type": "string"
        },
        {
          "indexed": false,
          "internalType": "address",
          "name": "_address",
          "type": "address"
        }
      ],
      "name": "ipfsStored",
      "type": "event"
    },
    {
      "anonymous": false,
      "inputs": [
        {
          "indexed": false,
          "internalType": "string",
          "name": "response",
          "type": "string"
        }
      ],
      "name": "receivedIPFS",
      "type": "event"
    },
    {
      "constant": false,
      "inputs": [
        {
          "internalType": "address",
          "name": "_address",
          "type": "address"
        },
        {
          "internalType": "string",
          "name": "_ipfsHash",
          "type": "string"
        }
      ],
      "name": "sendIPFS",
      "outputs": [],
      "payable": false,
      "stateMutability": "nonpayable",
      "type": "function"
    },
    {
      "constant": false,
      "inputs": [],
      "name": "checkInbox",
      "outputs": [],
      "payable": false,
      "stateMutability": "nonpayable",
      "type": "function"
    }
  ],
  "bytecode": "0x608060405234801561001057600080fd5b50610661806100206000396000f3fe608060405234801561001057600080fd5b50600436106100365760003560e01c80635c23d56f1461003b5780636bfc70e214610045575b600080fd5b610043610120565b005b61011e6004803603604081101561005b57600080fd5b81019080803573ffffffffffffffffffffffffffffffffffffffff1690602001909291908035906020019064010000000081111561009857600080fd5b8201836020820111156100aa57600080fd5b803590602001918460018302840111640100000000831117156100cc57600080fd5b91908080601f016020809104026020016040519081016040528093929190818152602001838380828437600081840152601f19601f820116905080830192505050505050509192919290505050610374565b005b60606000803373ffffffffffffffffffffffffffffffffffffffff1673ffffffffffffffffffffffffffffffffffffffff1681526020019081526020016000208054600181600116156101000203166002900480601f0160208091040260200160405190810160405280929190818152602001828054600181600116156101000203166002900480156101f45780601f106101c9576101008083540402835291602001916101f4565b820191906000526020600020905b8154815290600101906020018083116101d757829003601f168201915b50505050509050600081511415610272577f1c233d3f112ffa835451fb621a241f18c42bbbeeb5b87869edf77882afb1497960405180806020018281038252600b8152602001807f456d70747920496e626f7800000000000000000000000000000000000000000081525060200191505060405180910390a1610371565b604051806020016040528060008152506000803373ffffffffffffffffffffffffffffffffffffffff1673ffffffffffffffffffffffffffffffffffffffff16815260200190815260200160002090805190602001906102d3929190610587565b507f1c233d3f112ffa835451fb621a241f18c42bbbeeb5b87869edf77882afb14979816040518080602001828103825283818151815260200191508051906020019080838360005b8381101561033657808201518184015260208101905061031b565b50505050905090810190601f1680156103635780820380516001836020036101000a031916815260200191505b509250505060405180910390a15b50565b6000808373ffffffffffffffffffffffffffffffffffffffff1673ffffffffffffffffffffffffffffffffffffffff1681526020019081526020016000208054600181600116156101000203166002900480601f0160208091040260200160405190810160405280929190818152602001828054600181600116156101000203166002900480156104465780601f1061041b57610100808354040283529160200191610446565b820191906000526020600020905b81548152906001019060200180831161042957829003601f168201915b50505050506060819050600081511461045e57600080fd5b826000808673ffffffffffffffffffffffffffffffffffffffff1673ffffffffffffffffffffffffffffffffffffffff16815260200190815260200160002090805190602001906104b0929190610587565b507ffcac1e0e9c5060a8b0ebffadc9ddedc166c4545eb9d46fcbd09196238e9ba2fe838560405180806020018373ffffffffffffffffffffffffffffffffffffffff1673ffffffffffffffffffffffffffffffffffffffff168152602001828103825284818151815260200191508051906020019080838360005b8381101561054657808201518184015260208101905061052b565b50505050905090810190601f1680156105735780820380516001836020036101000a031916815260200191505b50935050505060405180910390a150505050565b828054600181600116156101000203166002900490600052602060002090601f016020900481019282601f106105c857805160ff19168380011785556105f6565b828001600101855582156105f6579182015b828111156105f55782518255916020019190600101906105da565b5b5090506106039190610607565b5090565b61062991905b8082111561062557600081600090555060010161060d565b5090565b9056fea265627a7a72315820292ec43964ca3a14bae70f6c19282ad468ff2d46e407ab2ab4d6f7ec5a8c2e5564736f6c63430005100032",
  "source": "// SPDX-License-Identifier: MIT\npragma solidity >=0.4.21 <8.10.0;\n\ncontract IdentityLedger {\n  // uint storedData;\n\n  // function set(uint x) public {\n  //   storedData = x;\n  // }\n\n  // function get() public view returns (uint) {\n  //   return storedData;\n  // }\n  mapping(address => string) identityLedger;\n    //mapping(address => mapping(address => string)) identityLedger;\n    event ipfsStored(string _ipfsHash, address _address);\n    event receivedIPFS(string response);\n    modifier notFull(string memory _string) {\n        bytes memory stringTest = bytes(_string);\n        require(stringTest.length == 0);\n        _;\n    }\n    constructor() public {}\n    function sendIPFS(address _address, string memory _ipfsHash)\n        public\n        notFull(identityLedger[_address])\n    {\n        identityLedger[_address] = _ipfsHash;\n        emit ipfsStored(_ipfsHash, _address);\n    }\n    function checkInbox() public {\n        string memory ipfs_hash = identityLedger[msg.sender];\n        if (bytes(ipfs_hash).length == 0) {\n            emit receivedIPFS(\"Empty Inbox\");\n        } else {\n            identityLedger[msg.sender] = \"\";\n            emit receivedIPFS(ipfs_hash);\n        }\n    }\n}\n",
  "sourcePath": "D:\\demo\\contracts\\IdentityLedger.sol",
  "compiler": {
    "name": "solc",
    "version": "0.5.16+commit.9c3226ce.Emscripten.clang"
  },
  "schemaVersion": "3.4.4",
  "updatedAt": "2022-05-06T10:51:55.128Z",
  "networkType": "ethereum",
  "devdoc": {
    "methods": {}
  },
  "userdoc": {
    "methods": {}
  }
}